{
  "contractName": "SimpleStorage",
  "abi": [
    {
      "inputs": [],
      "payable": false,
      "stateMutability": "nonpayable",
      "type": "constructor"
    },
    {
      "anonymous": false,
      "inputs": [
        {
          "indexed": false,
          "internalType": "uint256",
          "name": "jobId",
          "type": "uint256"
        },
        {
          "indexed": false,
          "internalType": "string",
          "name": "title",
          "type": "string"
        },
        {
          "indexed": false,
          "internalType": "string",
          "name": "roleType",
          "type": "string"
        },
        {
          "indexed": false,
          "internalType": "string",
          "name": "companyName",
          "type": "string"
        },
        {
          "indexed": false,
          "internalType": "string",
          "name": "companyUrl",
          "type": "string"
        },
        {
          "indexed": false,
          "internalType": "string",
          "name": "location",
          "type": "string"
        },
        {
          "indexed": false,
          "internalType": "string",
          "name": "description",
          "type": "string"
        }
      ],
      "name": "postAJobEvent",
      "type": "event"
    },
    {
      "constant": true,
      "inputs": [],
      "name": "appName",
      "outputs": [
        {
          "internalType": "string",
          "name": "",
          "type": "string"
        }
      ],
      "payable": false,
      "stateMutability": "view",
      "type": "function"
    },
    {
      "constant": true,
      "inputs": [],
      "name": "companyCount",
      "outputs": [
        {
          "internalType": "uint256",
          "name": "",
          "type": "uint256"
        }
      ],
      "payable": false,
      "stateMutability": "view",
      "type": "function"
    },
    {
      "constant": true,
      "inputs": [
        {
          "internalType": "uint256",
          "name": "",
          "type": "uint256"
        }
      ],
      "name": "companyMap",
      "outputs": [
        {
          "internalType": "uint256",
          "name": "companyId",
          "type": "uint256"
        },
        {
          "internalType": "string",
          "name": "companyName",
          "type": "string"
        }
      ],
      "payable": false,
      "stateMutability": "view",
      "type": "function"
    },
    {
      "constant": true,
      "inputs": [],
      "name": "counter",
      "outputs": [
        {
          "internalType": "uint256",
          "name": "",
          "type": "uint256"
        }
      ],
      "payable": false,
      "stateMutability": "view",
      "type": "function"
    },
    {
      "constant": true,
      "inputs": [
        {
          "internalType": "uint256",
          "name": "",
          "type": "uint256"
        }
      ],
      "name": "idToSkill",
      "outputs": [
        {
          "internalType": "string",
          "name": "",
          "type": "string"
        }
      ],
      "payable": false,
      "stateMutability": "view",
      "type": "function"
    },
    {
      "constant": true,
      "inputs": [
        {
          "internalType": "address",
          "name": "",
          "type": "address"
        }
      ],
      "name": "inverseCompanyMap",
      "outputs": [
        {
          "internalType": "uint256",
          "name": "",
          "type": "uint256"
        }
      ],
      "payable": false,
      "stateMutability": "view",
      "type": "function"
    },
    {
      "constant": true,
      "inputs": [
        {
          "internalType": "address",
          "name": "",
          "type": "address"
        }
      ],
      "name": "inverseJobSeekerMap",
      "outputs": [
        {
          "internalType": "uint256",
          "name": "",
          "type": "uint256"
        }
      ],
      "payable": false,
      "stateMutability": "view",
      "type": "function"
    },
    {
      "constant": true,
      "inputs": [],
      "name": "jobCount",
      "outputs": [
        {
          "internalType": "uint256",
          "name": "",
          "type": "uint256"
        }
      ],
      "payable": false,
      "stateMutability": "view",
      "type": "function"
    },
    {
      "constant": true,
      "inputs": [
        {
          "internalType": "uint256",
          "name": "",
          "type": "uint256"
        }
      ],
      "name": "jobDetailsMap",
      "outputs": [
        {
          "internalType": "uint256",
          "name": "jobId",
          "type": "uint256"
        },
        {
          "internalType": "string",
          "name": "title",
          "type": "string"
        },
        {
          "internalType": "string",
          "name": "roleType",
          "type": "string"
        },
        {
          "internalType": "string",
          "name": "companyName",
          "type": "string"
        },
        {
          "internalType": "string",
          "name": "companyUrl",
          "type": "string"
        },
        {
          "internalType": "string",
          "name": "location",
          "type": "string"
        },
        {
          "internalType": "string",
          "name": "description",
          "type": "string"
        }
      ],
      "payable": false,
      "stateMutability": "view",
      "type": "function"
    },
    {
      "constant": true,
      "inputs": [],
      "name": "jobSeekerCount",
      "outputs": [
        {
          "internalType": "uint256",
          "name": "",
          "type": "uint256"
        }
      ],
      "payable": false,
      "stateMutability": "view",
      "type": "function"
    },
    {
      "constant": true,
      "inputs": [
        {
          "internalType": "uint256",
          "name": "",
          "type": "uint256"
        }
      ],
      "name": "jobSeekerMap",
      "outputs": [
        {
          "internalType": "uint256",
          "name": "seekerId",
          "type": "uint256"
        },
        {
          "internalType": "string",
          "name": "name",
          "type": "string"
        },
        {
          "internalType": "string",
          "name": "age",
          "type": "string"
        },
        {
          "internalType": "string",
          "name": "gender",
          "type": "string"
        },
        {
          "internalType": "string",
          "name": "emailId",
          "type": "string"
        },
        {
          "internalType": "string",
          "name": "phoneNum",
          "type": "string"
        },
        {
          "internalType": "address payable",
          "name": "seekerAddress",
          "type": "address"
        }
      ],
      "payable": false,
      "stateMutability": "view",
      "type": "function"
    },
    {
      "constant": true,
      "inputs": [],
      "name": "owner",
      "outputs": [
        {
          "internalType": "address payable",
          "name": "",
          "type": "address"
        }
      ],
      "payable": false,
      "stateMutability": "view",
      "type": "function"
    },
    {
      "constant": true,
      "inputs": [
        {
          "internalType": "string",
          "name": "",
          "type": "string"
        }
      ],
      "name": "skillToId",
      "outputs": [
        {
          "internalType": "uint256",
          "name": "",
          "type": "uint256"
        }
      ],
      "payable": false,
      "stateMutability": "view",
      "type": "function"
    },
    {
      "constant": true,
      "inputs": [
        {
          "internalType": "uint256",
          "name": "",
          "type": "uint256"
        }
      ],
      "name": "temp",
      "outputs": [
        {
          "internalType": "string",
          "name": "",
          "type": "string"
        }
      ],
      "payable": false,
      "stateMutability": "view",
      "type": "function"
    },
    {
      "constant": true,
      "inputs": [],
      "name": "totalJobsApplied",
      "outputs": [
        {
          "internalType": "uint256",
          "name": "",
          "type": "uint256"
        }
      ],
      "payable": false,
      "stateMutability": "view",
      "type": "function"
    },
    {
      "constant": false,
      "inputs": [
        {
          "internalType": "string",
          "name": "name",
          "type": "string"
        },
        {
          "internalType": "string",
          "name": "age",
          "type": "string"
        },
        {
          "internalType": "string",
          "name": "gender",
          "type": "string"
        },
        {
          "internalType": "string",
          "name": "emailId",
          "type": "string"
        },
        {
          "internalType": "string",
          "name": "phoneNum",
          "type": "string"
        }
      ],
      "name": "registerSeeker",
      "outputs": [],
      "payable": false,
      "stateMutability": "nonpayable",
      "type": "function"
    },
    {
      "constant": true,
      "inputs": [],
      "name": "loginSeeker",
      "outputs": [],
      "payable": false,
      "stateMutability": "view",
      "type": "function"
    },
    {
      "constant": false,
      "inputs": [
        {
          "internalType": "string",
          "name": "companyName",
          "type": "string"
        }
      ],
      "name": "registerCompany",
      "outputs": [],
      "payable": false,
      "stateMutability": "nonpayable",
      "type": "function"
    },
    {
      "constant": true,
      "inputs": [],
      "name": "loginCompany",
      "outputs": [],
      "payable": false,
      "stateMutability": "view",
      "type": "function"
    },
    {
      "constant": false,
      "inputs": [
        {
          "internalType": "string",
          "name": "title",
          "type": "string"
        },
        {
          "internalType": "string",
          "name": "roleType",
          "type": "string"
        },
        {
          "internalType": "string",
          "name": "companyName",
          "type": "string"
        },
        {
          "internalType": "string",
          "name": "companyUrl",
          "type": "string"
        },
        {
          "internalType": "string",
          "name": "location",
          "type": "string"
        },
        {
          "internalType": "string",
          "name": "description",
          "type": "string"
        }
      ],
      "name": "postAJob",
      "outputs": [],
      "payable": false,
      "stateMutability": "nonpayable",
      "type": "function"
    },
    {
      "constant": false,
      "inputs": [
        {
          "internalType": "uint256",
          "name": "jobId",
          "type": "uint256"
        },
        {
          "internalType": "uint256",
          "name": "seekerId",
          "type": "uint256"
        }
      ],
      "name": "applyJobFromCandidate",
      "outputs": [],
      "payable": false,
      "stateMutability": "nonpayable",
      "type": "function"
    },
    {
      "constant": false,
      "inputs": [
        {
          "internalType": "uint256",
          "name": "jobId",
          "type": "uint256"
        },
        {
          "internalType": "uint256",
          "name": "seekerId",
          "type": "uint256"
        }
      ],
      "name": "acceptJobFromCompany",
      "outputs": [],
      "payable": false,
      "stateMutability": "nonpayable",
      "type": "function"
    }
  ],
  "bytecode": "0x60806040523480156200001157600080fd5b506040518060400160405280600581526020017f4869726544000000000000000000000000000000000000000000000000000000815250600090805190602001906200005f929190620004a6565b5033600160006101000a81548173ffffffffffffffffffffffffffffffffffffffff021916908373ffffffffffffffffffffffffffffffffffffffff160217905550600060028190555060006003819055506000600481905550600060058190555060006006819055506040518060400160405280600381526020017f432b2b0000000000000000000000000000000000000000000000000000000000815250600b6000808152602001908152602001600020908051906020019062000127929190620004a6565b506040518060400160405280600681526020017f507974686f6e0000000000000000000000000000000000000000000000000000815250600b600060018152602001908152602001600020908051906020019062000187929190620004a6565b506040518060400160405280600481526020017f4a61766100000000000000000000000000000000000000000000000000000000815250600b6000600281526020019081526020016000209080519060200190620001e7929190620004a6565b506040518060400160405280600781526020017f52656163744a5300000000000000000000000000000000000000000000000000815250600b600060038152602001908152602001600020908051906020019062000247929190620004a6565b506040518060400160405280600881526020017f536f6c6964697479000000000000000000000000000000000000000000000000815250600b6000600481526020019081526020016000209080519060200190620002a7929190620004a6565b506040518060400160405280600781526020017f4d6f6e676f444200000000000000000000000000000000000000000000000000815250600b600060058152602001908152602001600020908051906020019062000307929190620004a6565b506000600c60405180807f432b2b000000000000000000000000000000000000000000000000000000000081525060030190509081526020016040518091039020819055506001600c60405180807f507974686f6e000000000000000000000000000000000000000000000000000081525060060190509081526020016040518091039020819055506002600c60405180807f4a6176610000000000000000000000000000000000000000000000000000000081525060040190509081526020016040518091039020819055506003600c60405180807f52656163744a530000000000000000000000000000000000000000000000000081525060070190509081526020016040518091039020819055506004600c60405180807f536f6c696469747900000000000000000000000000000000000000000000000081525060080190509081526020016040518091039020819055506005600c60405180807f4d6f6e676f444200000000000000000000000000000000000000000000000000815250600701905090815260200160405180910390208190555062000555565b828054600181600116156101000203166002900490600052602060002090601f016020900481019282601f10620004e957805160ff19168380011785556200051a565b828001600101855582156200051a579182015b8281111562000519578251825591602001919060010190620004fc565b5b5090506200052991906200052d565b5090565b6200055291905b808211156200054e57600081600090555060010162000534565b5090565b90565b61295180620005656000396000f3fe608060405234801561001057600080fd5b50600436106101415760003560e01c80638baefbed116100b85780639d9e33631161007c5780639d9e336314610f52578063b26d907514610f5c578063ca0d5ecf14611226578063d0aab2c714611244578063e9d5ad1d14611313578063f882dada1461134b57610141565b80638baefbed14610e6a5780638da5cb5b14610ec25780638e75dd4714610f0c5780638f8450a114610f2a5780639abe04d914610f3457610141565b806361bc221a1161010a57806361bc221a146103f75780636ab767a2146104155780636b8a55f61461072c5780636c3755ad146109bd5780637b57e3fb14610a64578063811b074414610abc57610141565b8062544194146101465780630c97282c146102015780634b0daf72146102845780634c5d8a0f1461032b5780635367fb6914610349575b600080fd5b6101ff6004803603602081101561015c57600080fd5b810190808035906020019064010000000081111561017957600080fd5b82018360208201111561018b57600080fd5b803590602001918460018302840111640100000000831117156101ad57600080fd5b91908080601f016020809104026020016040519081016040528093929190818152602001838380828437600081840152601f19601f820116905080830192505050505050509192919290505050611383565b005b6102096114e9565b6040518080602001828103825283818151815260200191508051906020019080838360005b8381101561024957808201518184015260208101905061022e565b50505050905090810190601f1680156102765780820380516001836020036101000a031916815260200191505b509250505060405180910390f35b6102b06004803603602081101561029a57600080fd5b8101908080359060200190929190505050611587565b6040518080602001828103825283818151815260200191508051906020019080838360005b838110156102f05780820151818401526020810190506102d5565b50505050905090810190601f16801561031d5780820380516001836020036101000a031916815260200191505b509250505060405180910390f35b610333611637565b6040518082815260200191505060405180910390f35b6103756004803603602081101561035f57600080fd5b810190808035906020019092919050505061163d565b6040518083815260200180602001828103825283818151815260200191508051906020019080838360005b838110156103bb5780820151818401526020810190506103a0565b50505050905090810190601f1680156103e85780820380516001836020036101000a031916815260200191505b50935050505060405180910390f35b6103ff6116f9565b6040518082815260200191505060405180910390f35b61072a600480360360a081101561042b57600080fd5b810190808035906020019064010000000081111561044857600080fd5b82018360208201111561045a57600080fd5b8035906020019184600183028401116401000000008311171561047c57600080fd5b91908080601f016020809104026020016040519081016040528093929190818152602001838380828437600081840152601f19601f820116905080830192505050505050509192919290803590602001906401000000008111156104df57600080fd5b8201836020820111156104f157600080fd5b8035906020019184600183028401116401000000008311171561051357600080fd5b91908080601f016020809104026020016040519081016040528093929190818152602001838380828437600081840152601f19601f8201169050808301925050505050505091929192908035906020019064010000000081111561057657600080fd5b82018360208201111561058857600080fd5b803590602001918460018302840111640100000000831117156105aa57600080fd5b91908080601f016020809104026020016040519081016040528093929190818152602001838380828437600081840152601f19601f8201169050808301925050505050505091929192908035906020019064010000000081111561060d57600080fd5b82018360208201111561061f57600080fd5b8035906020019184600183028401116401000000008311171561064157600080fd5b91908080601f016020809104026020016040519081016040528093929190818152602001838380828437600081840152601f19601f820116905080830192505050505050509192919290803590602001906401000000008111156106a457600080fd5b8201836020820111156106b657600080fd5b803590602001918460018302840111640100000000831117156106d857600080fd5b91908080601f016020809104026020016040519081016040528093929190818152602001838380828437600081840152601f19601f8201169050808301925050505050505091929192905050506116ff565b005b6107586004803603602081101561074257600080fd5b8101908080359060200190929190505050611958565b6040518088815260200180602001806020018060200180602001806020018773ffffffffffffffffffffffffffffffffffffffff1673ffffffffffffffffffffffffffffffffffffffff16815260200186810386528c818151815260200191508051906020019080838360005b838110156107e05780820151818401526020810190506107c5565b50505050905090810190601f16801561080d5780820380516001836020036101000a031916815260200191505b5086810385528b818151815260200191508051906020019080838360005b8381101561084657808201518184015260208101905061082b565b50505050905090810190601f1680156108735780820380516001836020036101000a031916815260200191505b5086810384528a818151815260200191508051906020019080838360005b838110156108ac578082015181840152602081019050610891565b50505050905090810190601f1680156108d95780820380516001836020036101000a031916815260200191505b50868103835289818151815260200191508051906020019080838360005b838110156109125780820151818401526020810190506108f7565b50505050905090810190601f16801561093f5780820380516001836020036101000a031916815260200191505b50868103825288818151815260200191508051906020019080838360005b8381101561097857808201518184015260208101905061095d565b50505050905090810190601f1680156109a55780820380516001836020036101000a031916815260200191505b509c5050505050505050505050505060405180910390f35b6109e9600480360360208110156109d357600080fd5b8101908080359060200190929190505050611cb2565b6040518080602001828103825283818151815260200191508051906020019080838360005b83811015610a29578082015181840152602081019050610a0e565b50505050905090810190601f168015610a565780820380516001836020036101000a031916815260200191505b509250505060405180910390f35b610aa660048036036020811015610a7a57600080fd5b81019080803573ffffffffffffffffffffffffffffffffffffffff169060200190929190505050611d62565b6040518082815260200191505060405180910390f35b610e68600480360360c0811015610ad257600080fd5b8101908080359060200190640100000000811115610aef57600080fd5b820183602082011115610b0157600080fd5b80359060200191846001830284011164010000000083111715610b2357600080fd5b91908080601f016020809104026020016040519081016040528093929190818152602001838380828437600081840152601f19601f82011690508083019250505050505050919291929080359060200190640100000000811115610b8657600080fd5b820183602082011115610b9857600080fd5b80359060200191846001830284011164010000000083111715610bba57600080fd5b91908080601f016020809104026020016040519081016040528093929190818152602001838380828437600081840152601f19601f82011690508083019250505050505050919291929080359060200190640100000000811115610c1d57600080fd5b820183602082011115610c2f57600080fd5b80359060200191846001830284011164010000000083111715610c5157600080fd5b91908080601f016020809104026020016040519081016040528093929190818152602001838380828437600081840152601f19601f82011690508083019250505050505050919291929080359060200190640100000000811115610cb457600080fd5b820183602082011115610cc657600080fd5b80359060200191846001830284011164010000000083111715610ce857600080fd5b91908080601f016020809104026020016040519081016040528093929190818152602001838380828437600081840152601f19601f82011690508083019250505050505050919291929080359060200190640100000000811115610d4b57600080fd5b820183602082011115610d5d57600080fd5b80359060200191846001830284011164010000000083111715610d7f57600080fd5b91908080601f016020809104026020016040519081016040528093929190818152602001838380828437600081840152601f19601f82011690508083019250505050505050919291929080359060200190640100000000811115610de257600080fd5b820183602082011115610df457600080fd5b80359060200191846001830284011164010000000083111715610e1657600080fd5b91908080601f016020809104026020016040519081016040528093929190818152602001838380828437600081840152601f19601f820116905080830192505050505050509192919290505050611d7a565b005b610eac60048036036020811015610e8057600080fd5b81019080803573ffffffffffffffffffffffffffffffffffffffff16906020019092919050505061216c565b6040518082815260200191505060405180910390f35b610eca612184565b604051808273ffffffffffffffffffffffffffffffffffffffff1673ffffffffffffffffffffffffffffffffffffffff16815260200191505060405180910390f35b610f146121aa565b6040518082815260200191505060405180910390f35b610f326121b0565b005b610f3c612268565b6040518082815260200191505060405180910390f35b610f5a61226e565b005b610f8860048036036020811015610f7257600080fd5b8101908080359060200190929190505050612326565b6040518088815260200180602001806020018060200180602001806020018060200187810387528d818151815260200191508051906020019080838360005b83811015610fe2578082015181840152602081019050610fc7565b50505050905090810190601f16801561100f5780820380516001836020036101000a031916815260200191505b5087810386528c818151815260200191508051906020019080838360005b8381101561104857808201518184015260208101905061102d565b50505050905090810190601f1680156110755780820380516001836020036101000a031916815260200191505b5087810385528b818151815260200191508051906020019080838360005b838110156110ae578082015181840152602081019050611093565b50505050905090810190601f1680156110db5780820380516001836020036101000a031916815260200191505b5087810384528a818151815260200191508051906020019080838360005b838110156111145780820151818401526020810190506110f9565b50505050905090810190601f1680156111415780820380516001836020036101000a031916815260200191505b50878103835289818151815260200191508051906020019080838360005b8381101561117a57808201518184015260208101905061115f565b50505050905090810190601f1680156111a75780820380516001836020036101000a031916815260200191505b50878103825288818151815260200191508051906020019080838360005b838110156111e05780820151818401526020810190506111c5565b50505050905090810190601f16801561120d5780820380516001836020036101000a031916815260200191505b509d505050505050505050505050505060405180910390f35b61122e6126f8565b6040518082815260200191505060405180910390f35b6112fd6004803603602081101561125a57600080fd5b810190808035906020019064010000000081111561127757600080fd5b82018360208201111561128957600080fd5b803590602001918460018302840111640100000000831117156112ab57600080fd5b91908080601f016020809104026020016040519081016040528093929190818152602001838380828437600081840152601f19601f8201169050808301925050505050505091929192905050506126fe565b6040518082815260200191505060405180910390f35b6113496004803603604081101561132957600080fd5b81019080803590602001909291908035906020019092919050505061272c565b005b6113816004803603604081101561136157600080fd5b8101908080359060200190929190803590602001909291905050506127ba565b005b6000600a60003373ffffffffffffffffffffffffffffffffffffffff1673ffffffffffffffffffffffffffffffffffffffff1681526020019081526020016000205414611438576040517f08c379a000000000000000000000000000000000000000000000000000000000815260040180806020018281038252601d8152602001807f436f6d70616e7920697320616c7265616479207265676973746572656400000081525060200191505060405180910390fd5b600360008154809291906001019190505550600354600a60003373ffffffffffffffffffffffffffffffffffffffff1673ffffffffffffffffffffffffffffffffffffffff1681526020019081526020016000208190555060405180604001604052806003548152602001828152506009600060035481526020019081526020016000206000820151816000015560208201518160010190805190602001906114e292919061283a565b5090505050565b60008054600181600116156101000203166002900480601f01602080910402602001604051908101604052809291908181526020018280546001816001161561010002031660029004801561157f5780601f106115545761010080835404028352916020019161157f565b820191906000526020600020905b81548152906001019060200180831161156257829003601f168201915b505050505081565b600b6020528060005260406000206000915090508054600181600116156101000203166002900480601f01602080910402602001604051908101604052809291908181526020018280546001816001161561010002031660029004801561162f5780601f106116045761010080835404028352916020019161162f565b820191906000526020600020905b81548152906001019060200180831161161257829003601f168201915b505050505081565b60045481565b6009602052806000526040600020600091509050806000015490806001018054600181600116156101000203166002900480601f0160208091040260200160405190810160405280929190818152602001828054600181600116156101000203166002900480156116ef5780601f106116c4576101008083540402835291602001916116ef565b820191906000526020600020905b8154815290600101906020018083116116d257829003601f168201915b5050505050905082565b60055481565b6000600860003373ffffffffffffffffffffffffffffffffffffffff1673ffffffffffffffffffffffffffffffffffffffff16815260200190815260200160002054146117b4576040517f08c379a00000000000000000000000000000000000000000000000000000000081526004018080602001828103825260198152602001807f4a6f62205365656b657220616c7265616479206578697374730000000000000081525060200191505060405180910390fd5b600260008154809291906001019190505550600254600860003373ffffffffffffffffffffffffffffffffffffffff1673ffffffffffffffffffffffffffffffffffffffff168152602001908152602001600020819055506040518060e0016040528060025481526020018681526020018581526020018481526020018381526020018281526020013373ffffffffffffffffffffffffffffffffffffffff1681525060076000600254815260200190815260200160002060008201518160000155602082015181600101908051906020019061189292919061283a565b5060408201518160020190805190602001906118af92919061283a565b5060608201518160030190805190602001906118cc92919061283a565b5060808201518160040190805190602001906118e992919061283a565b5060a082015181600501908051906020019061190692919061283a565b5060c08201518160060160006101000a81548173ffffffffffffffffffffffffffffffffffffffff021916908373ffffffffffffffffffffffffffffffffffffffff1602179055509050505050505050565b6007602052806000526040600020600091509050806000015490806001018054600181600116156101000203166002900480601f016020809104026020016040519081016040528092919081815260200182805460018160011615610100020316600290048015611a0a5780601f106119df57610100808354040283529160200191611a0a565b820191906000526020600020905b8154815290600101906020018083116119ed57829003601f168201915b505050505090806002018054600181600116156101000203166002900480601f016020809104026020016040519081016040528092919081815260200182805460018160011615610100020316600290048015611aa85780601f10611a7d57610100808354040283529160200191611aa8565b820191906000526020600020905b815481529060010190602001808311611a8b57829003601f168201915b505050505090806003018054600181600116156101000203166002900480601f016020809104026020016040519081016040528092919081815260200182805460018160011615610100020316600290048015611b465780601f10611b1b57610100808354040283529160200191611b46565b820191906000526020600020905b815481529060010190602001808311611b2957829003601f168201915b505050505090806004018054600181600116156101000203166002900480601f016020809104026020016040519081016040528092919081815260200182805460018160011615610100020316600290048015611be45780601f10611bb957610100808354040283529160200191611be4565b820191906000526020600020905b815481529060010190602001808311611bc757829003601f168201915b505050505090806005018054600181600116156101000203166002900480601f016020809104026020016040519081016040528092919081815260200182805460018160011615610100020316600290048015611c825780601f10611c5757610100808354040283529160200191611c82565b820191906000526020600020905b815481529060010190602001808311611c6557829003601f168201915b5050505050908060060160009054906101000a900473ffffffffffffffffffffffffffffffffffffffff16905087565b600e6020528060005260406000206000915090508054600181600116156101000203166002900480601f016020809104026020016040519081016040528092919081815260200182805460018160011615610100020316600290048015611d5a5780601f10611d2f57610100808354040283529160200191611d5a565b820191906000526020600020905b815481529060010190602001808311611d3d57829003601f168201915b505050505081565b600a6020528060005260406000206000915090505481565b600460008154809291906001019190505550611d946128ba565b6040518060e00160405280600454815260200188815260200187815260200186815260200185815260200184815260200183815250905080600d60006004548152602001908152602001600020600082015181600001556020820151816001019080519060200190611e0792919061283a565b506040820151816002019080519060200190611e2492919061283a565b506060820151816003019080519060200190611e4192919061283a565b506080820151816004019080519060200190611e5e92919061283a565b5060a0820151816005019080519060200190611e7b92919061283a565b5060c0820151816006019080519060200190611e9892919061283a565b509050507f0a96dc76544a99b195cdb4d808513699087e3256edfd9fed216b4018b58094246004548888888888886040518088815260200180602001806020018060200180602001806020018060200187810387528d818151815260200191508051906020019080838360005b83811015611f20578082015181840152602081019050611f05565b50505050905090810190601f168015611f4d5780820380516001836020036101000a031916815260200191505b5087810386528c818151815260200191508051906020019080838360005b83811015611f86578082015181840152602081019050611f6b565b50505050905090810190601f168015611fb35780820380516001836020036101000a031916815260200191505b5087810385528b818151815260200191508051906020019080838360005b83811015611fec578082015181840152602081019050611fd1565b50505050905090810190601f1680156120195780820380516001836020036101000a031916815260200191505b5087810384528a818151815260200191508051906020019080838360005b83811015612052578082015181840152602081019050612037565b50505050905090810190601f16801561207f5780820380516001836020036101000a031916815260200191505b50878103835289818151815260200191508051906020019080838360005b838110156120b857808201518184015260208101905061209d565b50505050905090810190601f1680156120e55780820380516001836020036101000a031916815260200191505b50878103825288818151815260200191508051906020019080838360005b8381101561211e578082015181840152602081019050612103565b50505050905090810190601f16801561214b5780820380516001836020036101000a031916815260200191505b509d505050505050505050505050505060405180910390a150505050505050565b60086020528060005260406000206000915090505481565b600160009054906101000a900473ffffffffffffffffffffffffffffffffffffffff1681565b60035481565b6000600a60003373ffffffffffffffffffffffffffffffffffffffff1673ffffffffffffffffffffffffffffffffffffffff168152602001908152602001600020541415612266576040517f08c379a000000000000000000000000000000000000000000000000000000000815260040180806020018281038252601d8152602001807f436f6d70616e7920697320616c7265616479207265676973746572656400000081525060200191505060405180910390fd5b565b60065481565b6000600860003373ffffffffffffffffffffffffffffffffffffffff1673ffffffffffffffffffffffffffffffffffffffff168152602001908152602001600020541415612324576040517f08c379a00000000000000000000000000000000000000000000000000000000081526004018080602001828103825260208152602001807f5365656b65722073686f756c6420626520696e2074686520646174616261736581525060200191505060405180910390fd5b565b600d602052806000526040600020600091509050806000015490806001018054600181600116156101000203166002900480601f0160208091040260200160405190810160405280929190818152602001828054600181600116156101000203166002900480156123d85780601f106123ad576101008083540402835291602001916123d8565b820191906000526020600020905b8154815290600101906020018083116123bb57829003601f168201915b505050505090806002018054600181600116156101000203166002900480601f0160208091040260200160405190810160405280929190818152602001828054600181600116156101000203166002900480156124765780601f1061244b57610100808354040283529160200191612476565b820191906000526020600020905b81548152906001019060200180831161245957829003601f168201915b505050505090806003018054600181600116156101000203166002900480601f0160208091040260200160405190810160405280929190818152602001828054600181600116156101000203166002900480156125145780601f106124e957610100808354040283529160200191612514565b820191906000526020600020905b8154815290600101906020018083116124f757829003601f168201915b505050505090806004018054600181600116156101000203166002900480601f0160208091040260200160405190810160405280929190818152602001828054600181600116156101000203166002900480156125b25780601f10612587576101008083540402835291602001916125b2565b820191906000526020600020905b81548152906001019060200180831161259557829003601f168201915b505050505090806005018054600181600116156101000203166002900480601f0160208091040260200160405190810160405280929190818152602001828054600181600116156101000203166002900480156126505780601f1061262557610100808354040283529160200191612650565b820191906000526020600020905b81548152906001019060200180831161263357829003601f168201915b505050505090806006018054600181600116156101000203166002900480601f0160208091040260200160405190810160405280929190818152602001828054600181600116156101000203166002900480156126ee5780601f106126c3576101008083540402835291602001916126ee565b820191906000526020600020905b8154815290600101906020018083116126d157829003601f168201915b5050505050905087565b60025481565b600c818051602081018201805184825260208301602085012081835280955050505050506000915090505481565b6000600190505b60065481116127b55782600f6000838152602001908152602001600020541480156127705750816010600083815260200190815260200160002054145b156127a85760016011600083815260200190815260200160002081905550600160126000838152602001908152602001600020819055505b8080600101915050612733565b505050565b60066000815480929190600101919050555081600f600060065481526020019081526020016000208190555080601060006006548152602001908152602001600020819055506000601160006006548152602001908152602001600020819055506000601260006006548152602001908152602001600020819055505050565b828054600181600116156101000203166002900490600052602060002090601f016020900481019282601f1061287b57805160ff19168380011785556128a9565b828001600101855582156128a9579182015b828111156128a857825182559160200191906001019061288d565b5b5090506128b691906128f7565b5090565b6040518060e00160405280600081526020016060815260200160608152602001606081526020016060815260200160608152602001606081525090565b61291991905b808211156129155760008160009055506001016128fd565b5090565b9056fea265627a7a72315820f2fa80e6436076dbef1e13ef829cf2526e7bbaaa6c866c0c5013b8d36db0563c64736f6c63430005100032",
  "source": "// SPDX-License-Identifier: MIT\npragma solidity >=0.4.21 <8.10.0;\n\n// Job Seeker, Company, Admin\n// Company can post jobs (Company -> Array of Jobs)\n// Job Seeker can apply for jobs (Seeker -> Array of applied jobs)\n// Job Seeker can get array of job offers (Seeker -> Array of offers from company)\n// Job Seeker profile can be private or public\n// Job Seeker -> [skills Array]\n// (Job Seeker->Resume URI) mapping\n//Admin can add companies\n\n\ncontract SimpleStorage {\n  string public appName;\n  address payable public owner;\n\n  uint public jobSeekerCount;\n  uint public companyCount;\n  uint public jobCount;\n  uint public counter;\n  uint public totalJobsApplied;\n  constructor() public {\n    appName = \"HireD\";\n    owner = msg.sender;\n    jobSeekerCount = 0;\n    companyCount = 0;\n    jobCount = 0;\n    counter = 0;\n    totalJobsApplied = 0;\n\n    idToSkill[0] = \"C++\";\n    idToSkill[1] = \"Python\";\n    idToSkill[2] = \"Java\";\n    idToSkill[3] = \"ReactJS\";\n    idToSkill[4] = \"Solidity\";\n    idToSkill[5] = \"MongoDB\";\n    \n    skillToId[\"C++\"] = 0;\n    skillToId[\"Python\"] = 1;\n    skillToId[\"Java\"] = 2;\n    skillToId[\"ReactJS\"] = 3;\n    skillToId[\"Solidity\"] = 4;\n    skillToId[\"MongoDB\"] = 5;\n  }\n  mapping(uint => JobSeeker) public jobSeekerMap;\n  mapping(address => uint) public inverseJobSeekerMap;\n  \n  mapping(uint => Company) public companyMap;\n  mapping(address => uint) public inverseCompanyMap;\n  \n  mapping(uint => string) public idToSkill;\n  mapping(string => uint) public skillToId;\n\n  struct JobSeeker {\n    uint seekerId;\n    string name;\n    string age;\n    string gender;\n    string emailId;\n    string phoneNum;\n    address payable seekerAddress;\n  }\n  struct Company {\n    uint companyId;\n    string companyName;\n  }\n  struct JobDetails {\n    uint jobId;\n    string title;\n    string roleType;\n    string companyName;\n    string companyUrl;\n    string location;\n    string description;\n  }\n  mapping(uint=>JobDetails) public jobDetailsMap;\n  mapping(uint=>string) public temp;\n  \n  mapping(uint=>uint) totalToJobId;\n  mapping(uint=>uint) totalToSeekerId;\n\n  mapping(uint=>uint) totalToJobIdAccepted;\n  mapping(uint=>uint) totalToSeekerIdAccepted;\n\n\n  //Register the JobSeeker\n  function registerSeeker(string memory name,string memory age,string memory gender,string memory emailId,\n    string memory phoneNum) public {\n      require(inverseJobSeekerMap[msg.sender] == 0,\"Job Seeker already exists\");\n      jobSeekerCount++;\n      inverseJobSeekerMap[msg.sender] = jobSeekerCount;\n      jobSeekerMap[jobSeekerCount] = JobSeeker(jobSeekerCount,name,age,gender,emailId,phoneNum,msg.sender);\n  }\n\n\n  //Login the JobSeeker\n  function loginSeeker() public view{\n    require(inverseJobSeekerMap[msg.sender] != 0,\"Seeker should be in the database\");\n  }\n\n\n  //Register the Company\n  function registerCompany(string memory companyName) public {\n    require(inverseCompanyMap[msg.sender] == 0,\"Company is already registered\");\n    companyCount++;\n    inverseCompanyMap[msg.sender] = companyCount;\n    companyMap[companyCount] = Company(companyCount,companyName);\n  }\n\n  //Login the Company\n  function loginCompany() public view{\n    require(inverseCompanyMap[msg.sender] != 0,\"Company is already registered\");\n  }\n\n  event postAJobEvent(\n    uint jobId,\n    string title,\n    string roleType,\n    string companyName,\n    string companyUrl,\n    string location,\n    string description\n  );\n  //Company posting a job\n  function postAJob(string memory title,string memory roleType,string memory companyName,\n  string memory companyUrl,string memory location,string memory description) public {\n    jobCount++;\n    JobDetails memory j1 = JobDetails(jobCount,title,roleType,companyName,companyUrl,location,description);\n    jobDetailsMap[jobCount] = j1;\n    emit postAJobEvent(jobCount,title,roleType,companyName,companyUrl,location,description);\n    // read (temp_mapping) public mapping\n  }\n\n  function applyJobFromCandidate(uint jobId,uint seekerId) public {\n    totalJobsApplied++;\n    totalToJobId[totalJobsApplied] = jobId;\n    totalToSeekerId[totalJobsApplied] = seekerId; \n    totalToJobIdAccepted[totalJobsApplied] = 0;\n    totalToSeekerIdAccepted[totalJobsApplied] = 0; \n  }\n\n  function acceptJobFromCompany(uint jobId,uint seekerId) public {\n    for(uint i = 1;i <= totalJobsApplied ;i++){\n      if(totalToJobId[i]==jobId && totalToSeekerId[i]==seekerId){\n        totalToJobIdAccepted[i] = 1;\n        totalToSeekerIdAccepted[i] = 1;\n      }\n    }\n  }\n}\n",
  "sourcePath": "/home/aman/Desktop/blockchain-jobportal/contracts/SimpleStorage.sol",
  "compiler": {
    "name": "solc",
    "version": "0.5.16+commit.9c3226ce.Emscripten.clang"
  },
  "schemaVersion": "3.4.5",
  "updatedAt": "2022-04-17T07:43:42.625Z",
  "networkType": "ethereum",
  "devdoc": {
    "methods": {}
  },
  "userdoc": {
    "methods": {}
  }
}