{
  "contractName": "SimpleStorage",
  "abi": [
    {
      "inputs": [],
      "payable": false,
      "stateMutability": "nonpayable",
      "type": "constructor"
    },
    {
      "anonymous": false,
      "inputs": [
        {
          "indexed": false,
          "internalType": "uint256",
          "name": "jobId",
          "type": "uint256"
        },
        {
          "indexed": false,
          "internalType": "string",
          "name": "title",
          "type": "string"
        },
        {
          "indexed": false,
          "internalType": "string",
          "name": "roleType",
          "type": "string"
        },
        {
          "indexed": false,
          "internalType": "string",
          "name": "companyName",
          "type": "string"
        },
        {
          "indexed": false,
          "internalType": "string",
          "name": "companyUrl",
          "type": "string"
        },
        {
          "indexed": false,
          "internalType": "string",
          "name": "location",
          "type": "string"
        },
        {
          "indexed": false,
          "internalType": "string",
          "name": "description",
          "type": "string"
        }
      ],
      "name": "postAJobEvent",
      "type": "event"
    },
    {
      "constant": true,
      "inputs": [],
      "name": "appName",
      "outputs": [
        {
          "internalType": "string",
          "name": "",
          "type": "string"
        }
      ],
      "payable": false,
      "stateMutability": "view",
      "type": "function"
    },
    {
      "constant": true,
      "inputs": [],
      "name": "companyCount",
      "outputs": [
        {
          "internalType": "uint256",
          "name": "",
          "type": "uint256"
        }
      ],
      "payable": false,
      "stateMutability": "view",
      "type": "function"
    },
    {
      "constant": true,
      "inputs": [
        {
          "internalType": "uint256",
          "name": "",
          "type": "uint256"
        }
      ],
      "name": "companyMap",
      "outputs": [
        {
          "internalType": "uint256",
          "name": "companyId",
          "type": "uint256"
        },
        {
          "internalType": "string",
          "name": "companyName",
          "type": "string"
        }
      ],
      "payable": false,
      "stateMutability": "view",
      "type": "function"
    },
    {
      "constant": true,
      "inputs": [],
      "name": "counter",
      "outputs": [
        {
          "internalType": "uint256",
          "name": "",
          "type": "uint256"
        }
      ],
      "payable": false,
      "stateMutability": "view",
      "type": "function"
    },
    {
      "constant": true,
      "inputs": [
        {
          "internalType": "uint256",
          "name": "",
          "type": "uint256"
        }
      ],
      "name": "idToSkill",
      "outputs": [
        {
          "internalType": "string",
          "name": "",
          "type": "string"
        }
      ],
      "payable": false,
      "stateMutability": "view",
      "type": "function"
    },
    {
      "constant": true,
      "inputs": [
        {
          "internalType": "address",
          "name": "",
          "type": "address"
        }
      ],
      "name": "inverseCompanyMap",
      "outputs": [
        {
          "internalType": "uint256",
          "name": "",
          "type": "uint256"
        }
      ],
      "payable": false,
      "stateMutability": "view",
      "type": "function"
    },
    {
      "constant": true,
      "inputs": [
        {
          "internalType": "address",
          "name": "",
          "type": "address"
        }
      ],
      "name": "inverseJobSeekerMap",
      "outputs": [
        {
          "internalType": "uint256",
          "name": "",
          "type": "uint256"
        }
      ],
      "payable": false,
      "stateMutability": "view",
      "type": "function"
    },
    {
      "constant": true,
      "inputs": [],
      "name": "jobCount",
      "outputs": [
        {
          "internalType": "uint256",
          "name": "",
          "type": "uint256"
        }
      ],
      "payable": false,
      "stateMutability": "view",
      "type": "function"
    },
    {
      "constant": true,
      "inputs": [
        {
          "internalType": "uint256",
          "name": "",
          "type": "uint256"
        }
      ],
      "name": "jobDetailsMap",
      "outputs": [
        {
          "internalType": "uint256",
          "name": "jobId",
          "type": "uint256"
        },
        {
          "internalType": "string",
          "name": "title",
          "type": "string"
        },
        {
          "internalType": "string",
          "name": "roleType",
          "type": "string"
        },
        {
          "internalType": "string",
          "name": "companyName",
          "type": "string"
        },
        {
          "internalType": "string",
          "name": "companyUrl",
          "type": "string"
        },
        {
          "internalType": "string",
          "name": "location",
          "type": "string"
        },
        {
          "internalType": "string",
          "name": "description",
          "type": "string"
        }
      ],
      "payable": false,
      "stateMutability": "view",
      "type": "function"
    },
    {
      "constant": true,
      "inputs": [],
      "name": "jobSeekerCount",
      "outputs": [
        {
          "internalType": "uint256",
          "name": "",
          "type": "uint256"
        }
      ],
      "payable": false,
      "stateMutability": "view",
      "type": "function"
    },
    {
      "constant": true,
      "inputs": [
        {
          "internalType": "uint256",
          "name": "",
          "type": "uint256"
        }
      ],
      "name": "jobSeekerMap",
      "outputs": [
        {
          "internalType": "uint256",
          "name": "seekerId",
          "type": "uint256"
        },
        {
          "internalType": "string",
          "name": "name",
          "type": "string"
        },
        {
          "internalType": "string",
          "name": "age",
          "type": "string"
        },
        {
          "internalType": "string",
          "name": "gender",
          "type": "string"
        },
        {
          "internalType": "string",
          "name": "emailId",
          "type": "string"
        },
        {
          "internalType": "string",
          "name": "phoneNum",
          "type": "string"
        }
      ],
      "payable": false,
      "stateMutability": "view",
      "type": "function"
    },
    {
      "constant": true,
      "inputs": [],
      "name": "owner",
      "outputs": [
        {
          "internalType": "address payable",
          "name": "",
          "type": "address"
        }
      ],
      "payable": false,
      "stateMutability": "view",
      "type": "function"
    },
    {
      "constant": true,
      "inputs": [
        {
          "internalType": "string",
          "name": "",
          "type": "string"
        }
      ],
      "name": "skillToId",
      "outputs": [
        {
          "internalType": "uint256",
          "name": "",
          "type": "uint256"
        }
      ],
      "payable": false,
      "stateMutability": "view",
      "type": "function"
    },
    {
      "constant": true,
      "inputs": [
        {
          "internalType": "uint256",
          "name": "",
          "type": "uint256"
        }
      ],
      "name": "temp",
      "outputs": [
        {
          "internalType": "string",
          "name": "",
          "type": "string"
        }
      ],
      "payable": false,
      "stateMutability": "view",
      "type": "function"
    },
    {
      "constant": true,
      "inputs": [],
      "name": "totalJobsApplied",
      "outputs": [
        {
          "internalType": "uint256",
          "name": "",
          "type": "uint256"
        }
      ],
      "payable": false,
      "stateMutability": "view",
      "type": "function"
    },
    {
      "constant": false,
      "inputs": [
        {
          "internalType": "string",
          "name": "name",
          "type": "string"
        },
        {
          "internalType": "string",
          "name": "age",
          "type": "string"
        },
        {
          "internalType": "string",
          "name": "gender",
          "type": "string"
        },
        {
          "internalType": "string",
          "name": "emailId",
          "type": "string"
        },
        {
          "internalType": "string",
          "name": "phoneNum",
          "type": "string"
        }
      ],
      "name": "registerSeeker",
      "outputs": [],
      "payable": false,
      "stateMutability": "nonpayable",
      "type": "function"
    },
    {
      "constant": true,
      "inputs": [],
      "name": "loginSeeker",
      "outputs": [],
      "payable": false,
      "stateMutability": "view",
      "type": "function"
    },
    {
      "constant": false,
      "inputs": [
        {
          "internalType": "string",
          "name": "companyName",
          "type": "string"
        }
      ],
      "name": "registerCompany",
      "outputs": [],
      "payable": false,
      "stateMutability": "nonpayable",
      "type": "function"
    },
    {
      "constant": true,
      "inputs": [],
      "name": "loginCompany",
      "outputs": [],
      "payable": false,
      "stateMutability": "view",
      "type": "function"
    },
    {
      "constant": false,
      "inputs": [
        {
          "internalType": "string",
          "name": "title",
          "type": "string"
        },
        {
          "internalType": "string",
          "name": "roleType",
          "type": "string"
        },
        {
          "internalType": "string",
          "name": "companyName",
          "type": "string"
        },
        {
          "internalType": "string",
          "name": "companyUrl",
          "type": "string"
        },
        {
          "internalType": "string",
          "name": "location",
          "type": "string"
        },
        {
          "internalType": "string",
          "name": "description",
          "type": "string"
        },
        {
          "internalType": "uint256[]",
          "name": "skillsId",
          "type": "uint256[]"
        }
      ],
      "name": "postAJob",
      "outputs": [],
      "payable": false,
      "stateMutability": "nonpayable",
      "type": "function"
    },
    {
      "constant": false,
      "inputs": [
        {
          "internalType": "uint256",
          "name": "jobId",
          "type": "uint256"
        },
        {
          "internalType": "uint256",
          "name": "seekerId",
          "type": "uint256"
        }
      ],
      "name": "applyJobFromCandidate",
      "outputs": [],
      "payable": false,
      "stateMutability": "nonpayable",
      "type": "function"
    },
    {
      "constant": false,
      "inputs": [
        {
          "internalType": "uint256",
          "name": "jobId",
          "type": "uint256"
        },
        {
          "internalType": "uint256",
          "name": "seekerId",
          "type": "uint256"
        }
      ],
      "name": "acceptJobFromCompany",
      "outputs": [],
      "payable": false,
      "stateMutability": "nonpayable",
      "type": "function"
    }
  ],
  "bytecode": "0x60806040523480156200001157600080fd5b506040518060400160405280600581526020017f4869726544000000000000000000000000000000000000000000000000000000815250600090805190602001906200005f929190620004a6565b5033600160006101000a81548173ffffffffffffffffffffffffffffffffffffffff021916908373ffffffffffffffffffffffffffffffffffffffff160217905550600060028190555060006003819055506000600481905550600060058190555060006006819055506040518060400160405280600381526020017f432b2b0000000000000000000000000000000000000000000000000000000000815250600b6000808152602001908152602001600020908051906020019062000127929190620004a6565b506040518060400160405280600681526020017f507974686f6e0000000000000000000000000000000000000000000000000000815250600b600060018152602001908152602001600020908051906020019062000187929190620004a6565b506040518060400160405280600481526020017f4a61766100000000000000000000000000000000000000000000000000000000815250600b6000600281526020019081526020016000209080519060200190620001e7929190620004a6565b506040518060400160405280600781526020017f52656163744a5300000000000000000000000000000000000000000000000000815250600b600060038152602001908152602001600020908051906020019062000247929190620004a6565b506040518060400160405280600881526020017f536f6c6964697479000000000000000000000000000000000000000000000000815250600b6000600481526020019081526020016000209080519060200190620002a7929190620004a6565b506040518060400160405280600781526020017f4d6f6e676f444200000000000000000000000000000000000000000000000000815250600b600060058152602001908152602001600020908051906020019062000307929190620004a6565b506000600c60405180807f432b2b000000000000000000000000000000000000000000000000000000000081525060030190509081526020016040518091039020819055506001600c60405180807f507974686f6e000000000000000000000000000000000000000000000000000081525060060190509081526020016040518091039020819055506002600c60405180807f4a6176610000000000000000000000000000000000000000000000000000000081525060040190509081526020016040518091039020819055506003600c60405180807f52656163744a530000000000000000000000000000000000000000000000000081525060070190509081526020016040518091039020819055506004600c60405180807f536f6c696469747900000000000000000000000000000000000000000000000081525060080190509081526020016040518091039020819055506005600c60405180807f4d6f6e676f444200000000000000000000000000000000000000000000000000815250600701905090815260200160405180910390208190555062000555565b828054600181600116156101000203166002900490600052602060002090601f016020900481019282601f10620004e957805160ff19168380011785556200051a565b828001600101855582156200051a579182015b8281111562000519578251825591602001919060010190620004fc565b5b5090506200052991906200052d565b5090565b6200055291905b808211156200054e57600081600090555060010162000534565b5090565b90565b612ad580620005656000396000f3fe608060405234801561001057600080fd5b50600436106101415760003560e01c80638baefbed116100b85780639d9e33631161007c5780639d9e336314610fb3578063b26d907514610fbd578063ca0d5ecf14611287578063d0aab2c7146112a5578063e9d5ad1d14611374578063f882dada146113ac57610141565b80638baefbed14610ecb5780638da5cb5b14610f235780638e75dd4714610f6d5780638f8450a114610f8b5780639abe04d914610f9557610141565b80635367fb691161010a5780635367fb691461078b57806361bc221a146108395780636ab767a2146108575780636b8a55f614610b6e5780636c3755ad14610dcc5780637b57e3fb14610e7357610141565b8062544194146101465780630a2bc459146102015780630c97282c146106435780634b0daf72146106c65780634c5d8a0f1461076d575b600080fd5b6101ff6004803603602081101561015c57600080fd5b810190808035906020019064010000000081111561017957600080fd5b82018360208201111561018b57600080fd5b803590602001918460018302840111640100000000831117156101ad57600080fd5b91908080601f016020809104026020016040519081016040528093929190818152602001838380828437600081840152601f19601f8201169050808301925050505050505091929192905050506113e4565b005b610641600480360360e081101561021757600080fd5b810190808035906020019064010000000081111561023457600080fd5b82018360208201111561024657600080fd5b8035906020019184600183028401116401000000008311171561026857600080fd5b91908080601f016020809104026020016040519081016040528093929190818152602001838380828437600081840152601f19601f820116905080830192505050505050509192919290803590602001906401000000008111156102cb57600080fd5b8201836020820111156102dd57600080fd5b803590602001918460018302840111640100000000831117156102ff57600080fd5b91908080601f016020809104026020016040519081016040528093929190818152602001838380828437600081840152601f19601f8201169050808301925050505050505091929192908035906020019064010000000081111561036257600080fd5b82018360208201111561037457600080fd5b8035906020019184600183028401116401000000008311171561039657600080fd5b91908080601f016020809104026020016040519081016040528093929190818152602001838380828437600081840152601f19601f820116905080830192505050505050509192919290803590602001906401000000008111156103f957600080fd5b82018360208201111561040b57600080fd5b8035906020019184600183028401116401000000008311171561042d57600080fd5b91908080601f016020809104026020016040519081016040528093929190818152602001838380828437600081840152601f19601f8201169050808301925050505050505091929192908035906020019064010000000081111561049057600080fd5b8201836020820111156104a257600080fd5b803590602001918460018302840111640100000000831117156104c457600080fd5b91908080601f016020809104026020016040519081016040528093929190818152602001838380828437600081840152601f19601f8201169050808301925050505050505091929192908035906020019064010000000081111561052757600080fd5b82018360208201111561053957600080fd5b8035906020019184600183028401116401000000008311171561055b57600080fd5b91908080601f016020809104026020016040519081016040528093929190818152602001838380828437600081840152601f19601f820116905080830192505050505050509192919290803590602001906401000000008111156105be57600080fd5b8201836020820111156105d057600080fd5b803590602001918460208302840111640100000000831117156105f257600080fd5b919080806020026020016040519081016040528093929190818152602001838360200280828437600081840152601f19601f82011690508083019250505050505050919291929050505061154a565b005b61064b611a68565b6040518080602001828103825283818151815260200191508051906020019080838360005b8381101561068b578082015181840152602081019050610670565b50505050905090810190601f1680156106b85780820380516001836020036101000a031916815260200191505b509250505060405180910390f35b6106f2600480360360208110156106dc57600080fd5b8101908080359060200190929190505050611b06565b6040518080602001828103825283818151815260200191508051906020019080838360005b83811015610732578082015181840152602081019050610717565b50505050905090810190601f16801561075f5780820380516001836020036101000a031916815260200191505b509250505060405180910390f35b610775611bb6565b6040518082815260200191505060405180910390f35b6107b7600480360360208110156107a157600080fd5b8101908080359060200190929190505050611bbc565b6040518083815260200180602001828103825283818151815260200191508051906020019080838360005b838110156107fd5780820151818401526020810190506107e2565b50505050905090810190601f16801561082a5780820380516001836020036101000a031916815260200191505b50935050505060405180910390f35b610841611c78565b6040518082815260200191505060405180910390f35b610b6c600480360360a081101561086d57600080fd5b810190808035906020019064010000000081111561088a57600080fd5b82018360208201111561089c57600080fd5b803590602001918460018302840111640100000000831117156108be57600080fd5b91908080601f016020809104026020016040519081016040528093929190818152602001838380828437600081840152601f19601f8201169050808301925050505050505091929192908035906020019064010000000081111561092157600080fd5b82018360208201111561093357600080fd5b8035906020019184600183028401116401000000008311171561095557600080fd5b91908080601f016020809104026020016040519081016040528093929190818152602001838380828437600081840152601f19601f820116905080830192505050505050509192919290803590602001906401000000008111156109b857600080fd5b8201836020820111156109ca57600080fd5b803590602001918460018302840111640100000000831117156109ec57600080fd5b91908080601f016020809104026020016040519081016040528093929190818152602001838380828437600081840152601f19601f82011690508083019250505050505050919291929080359060200190640100000000811115610a4f57600080fd5b820183602082011115610a6157600080fd5b80359060200191846001830284011164010000000083111715610a8357600080fd5b91908080601f016020809104026020016040519081016040528093929190818152602001838380828437600081840152601f19601f82011690508083019250505050505050919291929080359060200190640100000000811115610ae657600080fd5b820183602082011115610af857600080fd5b80359060200191846001830284011164010000000083111715610b1a57600080fd5b91908080601f016020809104026020016040519081016040528093929190818152602001838380828437600081840152601f19601f820116905080830192505050505050509192919290505050611c7e565b005b610b9a60048036036020811015610b8457600080fd5b8101908080359060200190929190505050611e74565b60405180878152602001806020018060200180602001806020018060200186810386528b818151815260200191508051906020019080838360005b83811015610bf0578082015181840152602081019050610bd5565b50505050905090810190601f168015610c1d5780820380516001836020036101000a031916815260200191505b5086810385528a818151815260200191508051906020019080838360005b83811015610c56578082015181840152602081019050610c3b565b50505050905090810190601f168015610c835780820380516001836020036101000a031916815260200191505b50868103845289818151815260200191508051906020019080838360005b83811015610cbc578082015181840152602081019050610ca1565b50505050905090810190601f168015610ce95780820380516001836020036101000a031916815260200191505b50868103835288818151815260200191508051906020019080838360005b83811015610d22578082015181840152602081019050610d07565b50505050905090810190601f168015610d4f5780820380516001836020036101000a031916815260200191505b50868103825287818151815260200191508051906020019080838360005b83811015610d88578082015181840152602081019050610d6d565b50505050905090810190601f168015610db55780820380516001836020036101000a031916815260200191505b509b50505050505050505050505060405180910390f35b610df860048036036020811015610de257600080fd5b81019080803590602001909291905050506121a8565b6040518080602001828103825283818151815260200191508051906020019080838360005b83811015610e38578082015181840152602081019050610e1d565b50505050905090810190601f168015610e655780820380516001836020036101000a031916815260200191505b509250505060405180910390f35b610eb560048036036020811015610e8957600080fd5b81019080803573ffffffffffffffffffffffffffffffffffffffff169060200190929190505050612258565b6040518082815260200191505060405180910390f35b610f0d60048036036020811015610ee157600080fd5b81019080803573ffffffffffffffffffffffffffffffffffffffff169060200190929190505050612270565b6040518082815260200191505060405180910390f35b610f2b612288565b604051808273ffffffffffffffffffffffffffffffffffffffff1673ffffffffffffffffffffffffffffffffffffffff16815260200191505060405180910390f35b610f756122ae565b6040518082815260200191505060405180910390f35b610f936122b4565b005b610f9d61236c565b6040518082815260200191505060405180910390f35b610fbb612372565b005b610fe960048036036020811015610fd357600080fd5b810190808035906020019092919050505061242a565b6040518088815260200180602001806020018060200180602001806020018060200187810387528d818151815260200191508051906020019080838360005b83811015611043578082015181840152602081019050611028565b50505050905090810190601f1680156110705780820380516001836020036101000a031916815260200191505b5087810386528c818151815260200191508051906020019080838360005b838110156110a957808201518184015260208101905061108e565b50505050905090810190601f1680156110d65780820380516001836020036101000a031916815260200191505b5087810385528b818151815260200191508051906020019080838360005b8381101561110f5780820151818401526020810190506110f4565b50505050905090810190601f16801561113c5780820380516001836020036101000a031916815260200191505b5087810384528a818151815260200191508051906020019080838360005b8381101561117557808201518184015260208101905061115a565b50505050905090810190601f1680156111a25780820380516001836020036101000a031916815260200191505b50878103835289818151815260200191508051906020019080838360005b838110156111db5780820151818401526020810190506111c0565b50505050905090810190601f1680156112085780820380516001836020036101000a031916815260200191505b50878103825288818151815260200191508051906020019080838360005b83811015611241578082015181840152602081019050611226565b50505050905090810190601f16801561126e5780820380516001836020036101000a031916815260200191505b509d505050505050505050505050505060405180910390f35b61128f6127fc565b6040518082815260200191505060405180910390f35b61135e600480360360208110156112bb57600080fd5b81019080803590602001906401000000008111156112d857600080fd5b8201836020820111156112ea57600080fd5b8035906020019184600183028401116401000000008311171561130c57600080fd5b91908080601f016020809104026020016040519081016040528093929190818152602001838380828437600081840152601f19601f820116905080830192505050505050509192919290505050612802565b6040518082815260200191505060405180910390f35b6113aa6004803603604081101561138a57600080fd5b810190808035906020019092919080359060200190929190505050612830565b005b6113e2600480360360408110156113c257600080fd5b8101908080359060200190929190803590602001909291905050506128be565b005b6000600a60003373ffffffffffffffffffffffffffffffffffffffff1673ffffffffffffffffffffffffffffffffffffffff1681526020019081526020016000205414611499576040517f08c379a000000000000000000000000000000000000000000000000000000000815260040180806020018281038252601d8152602001807f436f6d70616e7920697320616c7265616479207265676973746572656400000081525060200191505060405180910390fd5b600360008154809291906001019190505550600354600a60003373ffffffffffffffffffffffffffffffffffffffff1673ffffffffffffffffffffffffffffffffffffffff16815260200190815260200160002081905550604051806040016040528060035481526020018281525060096000600354815260200190815260200160002060008201518160000155602082015181600101908051906020019061154392919061293e565b5090505050565b600460008154809291906001019190505550600060058190555060008090505b815181101561168657600082828151811061158157fe5b602002602001015190506060600b60008381526020019081526020016000208054600181600116156101000203166002900480601f0160208091040260200160405190810160405280929190818152602001828054600181600116156101000203166002900480156116345780601f1061160957610100808354040283529160200191611634565b820191906000526020600020905b81548152906001019060200180831161161757829003601f168201915b5050505050905080600e6000600554815260200190815260200160002090805190602001906116649291906129be565b506005600081548092919060010191905055505050808060010191505061156a565b5061168f612a3e565b6040518060e00160405280600454815260200189815260200188815260200187815260200186815260200185815260200184815250905080600d6000600454815260200190815260200160002060008201518160000155602082015181600101908051906020019061170292919061293e565b50604082015181600201908051906020019061171f92919061293e565b50606082015181600301908051906020019061173c92919061293e565b50608082015181600401908051906020019061175992919061293e565b5060a082015181600501908051906020019061177692919061293e565b5060c082015181600601908051906020019061179392919061293e565b509050507f0a96dc76544a99b195cdb4d808513699087e3256edfd9fed216b4018b58094246004548989898989896040518088815260200180602001806020018060200180602001806020018060200187810387528d818151815260200191508051906020019080838360005b8381101561181b578082015181840152602081019050611800565b50505050905090810190601f1680156118485780820380516001836020036101000a031916815260200191505b5087810386528c818151815260200191508051906020019080838360005b83811015611881578082015181840152602081019050611866565b50505050905090810190601f1680156118ae5780820380516001836020036101000a031916815260200191505b5087810385528b818151815260200191508051906020019080838360005b838110156118e75780820151818401526020810190506118cc565b50505050905090810190601f1680156119145780820380516001836020036101000a031916815260200191505b5087810384528a818151815260200191508051906020019080838360005b8381101561194d578082015181840152602081019050611932565b50505050905090810190601f16801561197a5780820380516001836020036101000a031916815260200191505b50878103835289818151815260200191508051906020019080838360005b838110156119b3578082015181840152602081019050611998565b50505050905090810190601f1680156119e05780820380516001836020036101000a031916815260200191505b50878103825288818151815260200191508051906020019080838360005b83811015611a195780820151818401526020810190506119fe565b50505050905090810190601f168015611a465780820380516001836020036101000a031916815260200191505b509d505050505050505050505050505060405180910390a15050505050505050565b60008054600181600116156101000203166002900480601f016020809104026020016040519081016040528092919081815260200182805460018160011615610100020316600290048015611afe5780601f10611ad357610100808354040283529160200191611afe565b820191906000526020600020905b815481529060010190602001808311611ae157829003601f168201915b505050505081565b600b6020528060005260406000206000915090508054600181600116156101000203166002900480601f016020809104026020016040519081016040528092919081815260200182805460018160011615610100020316600290048015611bae5780601f10611b8357610100808354040283529160200191611bae565b820191906000526020600020905b815481529060010190602001808311611b9157829003601f168201915b505050505081565b60045481565b6009602052806000526040600020600091509050806000015490806001018054600181600116156101000203166002900480601f016020809104026020016040519081016040528092919081815260200182805460018160011615610100020316600290048015611c6e5780601f10611c4357610100808354040283529160200191611c6e565b820191906000526020600020905b815481529060010190602001808311611c5157829003601f168201915b5050505050905082565b60055481565b6000600860003373ffffffffffffffffffffffffffffffffffffffff1673ffffffffffffffffffffffffffffffffffffffff1681526020019081526020016000205414611d33576040517f08c379a00000000000000000000000000000000000000000000000000000000081526004018080602001828103825260198152602001807f4a6f62205365656b657220616c7265616479206578697374730000000000000081525060200191505060405180910390fd5b600260008154809291906001019190505550600254600860003373ffffffffffffffffffffffffffffffffffffffff1673ffffffffffffffffffffffffffffffffffffffff168152602001908152602001600020819055506040518060c00160405280600254815260200186815260200185815260200184815260200183815260200182815250600760006002548152602001908152602001600020600082015181600001556020820151816001019080519060200190611df592919061293e565b506040820151816002019080519060200190611e1292919061293e565b506060820151816003019080519060200190611e2f92919061293e565b506080820151816004019080519060200190611e4c92919061293e565b5060a0820151816005019080519060200190611e6992919061293e565b509050505050505050565b6007602052806000526040600020600091509050806000015490806001018054600181600116156101000203166002900480601f016020809104026020016040519081016040528092919081815260200182805460018160011615610100020316600290048015611f265780601f10611efb57610100808354040283529160200191611f26565b820191906000526020600020905b815481529060010190602001808311611f0957829003601f168201915b505050505090806002018054600181600116156101000203166002900480601f016020809104026020016040519081016040528092919081815260200182805460018160011615610100020316600290048015611fc45780601f10611f9957610100808354040283529160200191611fc4565b820191906000526020600020905b815481529060010190602001808311611fa757829003601f168201915b505050505090806003018054600181600116156101000203166002900480601f0160208091040260200160405190810160405280929190818152602001828054600181600116156101000203166002900480156120625780601f1061203757610100808354040283529160200191612062565b820191906000526020600020905b81548152906001019060200180831161204557829003601f168201915b505050505090806004018054600181600116156101000203166002900480601f0160208091040260200160405190810160405280929190818152602001828054600181600116156101000203166002900480156121005780601f106120d557610100808354040283529160200191612100565b820191906000526020600020905b8154815290600101906020018083116120e357829003601f168201915b505050505090806005018054600181600116156101000203166002900480601f01602080910402602001604051908101604052809291908181526020018280546001816001161561010002031660029004801561219e5780601f106121735761010080835404028352916020019161219e565b820191906000526020600020905b81548152906001019060200180831161218157829003601f168201915b5050505050905086565b600e6020528060005260406000206000915090508054600181600116156101000203166002900480601f0160208091040260200160405190810160405280929190818152602001828054600181600116156101000203166002900480156122505780601f1061222557610100808354040283529160200191612250565b820191906000526020600020905b81548152906001019060200180831161223357829003601f168201915b505050505081565b600a6020528060005260406000206000915090505481565b60086020528060005260406000206000915090505481565b600160009054906101000a900473ffffffffffffffffffffffffffffffffffffffff1681565b60035481565b6000600a60003373ffffffffffffffffffffffffffffffffffffffff1673ffffffffffffffffffffffffffffffffffffffff16815260200190815260200160002054141561236a576040517f08c379a000000000000000000000000000000000000000000000000000000000815260040180806020018281038252601d8152602001807f436f6d70616e7920697320616c7265616479207265676973746572656400000081525060200191505060405180910390fd5b565b60065481565b6000600860003373ffffffffffffffffffffffffffffffffffffffff1673ffffffffffffffffffffffffffffffffffffffff168152602001908152602001600020541415612428576040517f08c379a00000000000000000000000000000000000000000000000000000000081526004018080602001828103825260208152602001807f5365656b65722073686f756c6420626520696e2074686520646174616261736581525060200191505060405180910390fd5b565b600d602052806000526040600020600091509050806000015490806001018054600181600116156101000203166002900480601f0160208091040260200160405190810160405280929190818152602001828054600181600116156101000203166002900480156124dc5780601f106124b1576101008083540402835291602001916124dc565b820191906000526020600020905b8154815290600101906020018083116124bf57829003601f168201915b505050505090806002018054600181600116156101000203166002900480601f01602080910402602001604051908101604052809291908181526020018280546001816001161561010002031660029004801561257a5780601f1061254f5761010080835404028352916020019161257a565b820191906000526020600020905b81548152906001019060200180831161255d57829003601f168201915b505050505090806003018054600181600116156101000203166002900480601f0160208091040260200160405190810160405280929190818152602001828054600181600116156101000203166002900480156126185780601f106125ed57610100808354040283529160200191612618565b820191906000526020600020905b8154815290600101906020018083116125fb57829003601f168201915b505050505090806004018054600181600116156101000203166002900480601f0160208091040260200160405190810160405280929190818152602001828054600181600116156101000203166002900480156126b65780601f1061268b576101008083540402835291602001916126b6565b820191906000526020600020905b81548152906001019060200180831161269957829003601f168201915b505050505090806005018054600181600116156101000203166002900480601f0160208091040260200160405190810160405280929190818152602001828054600181600116156101000203166002900480156127545780601f1061272957610100808354040283529160200191612754565b820191906000526020600020905b81548152906001019060200180831161273757829003601f168201915b505050505090806006018054600181600116156101000203166002900480601f0160208091040260200160405190810160405280929190818152602001828054600181600116156101000203166002900480156127f25780601f106127c7576101008083540402835291602001916127f2565b820191906000526020600020905b8154815290600101906020018083116127d557829003601f168201915b5050505050905087565b60025481565b600c818051602081018201805184825260208301602085012081835280955050505050506000915090505481565b60008090505b6006548110156128b95782600f6000838152602001908152602001600020541480156128745750816010600083815260200190815260200160002054145b156128ac5760016011600083815260200190815260200160002081905550600160126000838152602001908152602001600020819055505b8080600101915050612836565b505050565b60066000815480929190600101919050555081600f600060065481526020019081526020016000208190555080601060006006548152602001908152602001600020819055506000601160006006548152602001908152602001600020819055506000601260006006548152602001908152602001600020819055505050565b828054600181600116156101000203166002900490600052602060002090601f016020900481019282601f1061297f57805160ff19168380011785556129ad565b828001600101855582156129ad579182015b828111156129ac578251825591602001919060010190612991565b5b5090506129ba9190612a7b565b5090565b828054600181600116156101000203166002900490600052602060002090601f016020900481019282601f106129ff57805160ff1916838001178555612a2d565b82800160010185558215612a2d579182015b82811115612a2c578251825591602001919060010190612a11565b5b509050612a3a9190612a7b565b5090565b6040518060e00160405280600081526020016060815260200160608152602001606081526020016060815260200160608152602001606081525090565b612a9d91905b80821115612a99576000816000905550600101612a81565b5090565b9056fea265627a7a72315820e9de251ac113255603959a90d774d04815b055ccd001804eab62c4858160ee3f64736f6c63430005100032",
  "source": "// SPDX-License-Identifier: MIT\npragma solidity >=0.4.21 <8.10.0;\n\n// Job Seeker, Company, Admin\n// Company can post jobs (Company -> Array of Jobs)\n// Job Seeker can apply for jobs (Seeker -> Array of applied jobs)\n// Job Seeker can get array of job offers (Seeker -> Array of offers from company)\n// Job Seeker profile can be private or public\n// Job Seeker -> [skills Array]\n// (Job Seeker->Resume URI) mapping\n//Admin can add companies\n\n\ncontract SimpleStorage {\n  string public appName;\n  address payable public owner;\n\n  uint public jobSeekerCount;\n  uint public companyCount;\n  uint public jobCount;\n  uint public counter;\n  uint public totalJobsApplied;\n  constructor() public {\n    appName = \"HireD\";\n    owner = msg.sender;\n    jobSeekerCount = 0;\n    companyCount = 0;\n    jobCount = 0;\n    counter = 0;\n    totalJobsApplied = 0;\n\n    idToSkill[0] = \"C++\";\n    idToSkill[1] = \"Python\";\n    idToSkill[2] = \"Java\";\n    idToSkill[3] = \"ReactJS\";\n    idToSkill[4] = \"Solidity\";\n    idToSkill[5] = \"MongoDB\";\n    \n    skillToId[\"C++\"] = 0;\n    skillToId[\"Python\"] = 1;\n    skillToId[\"Java\"] = 2;\n    skillToId[\"ReactJS\"] = 3;\n    skillToId[\"Solidity\"] = 4;\n    skillToId[\"MongoDB\"] = 5;\n  }\n  mapping(uint => JobSeeker) public jobSeekerMap;\n  mapping(address => uint) public inverseJobSeekerMap;\n  \n  mapping(uint => Company) public companyMap;\n  mapping(address => uint) public inverseCompanyMap;\n  \n  mapping(uint => string) public idToSkill;\n  mapping(string => uint) public skillToId;\n\n  struct JobSeeker {\n    uint seekerId;\n    string name;\n    string age;\n    string gender;\n    string emailId;\n    string phoneNum;\n  }\n  struct Company {\n    uint companyId;\n    string companyName;\n  }\n  struct JobDetails {\n    uint jobId;\n    string title;\n    string roleType;\n    string companyName;\n    string companyUrl;\n    string location;\n    string description;\n  }\n  mapping(uint=>JobDetails) public jobDetailsMap;\n  mapping(uint=>string) public temp;\n  \n  mapping(uint=>uint) totalToJobId;\n  mapping(uint=>uint) totalToSeekerId;\n\n  mapping(uint=>uint) totalToJobIdAccepted;\n  mapping(uint=>uint) totalToSeekerIdAccepted;\n\n\n  //Register the JobSeeker\n  function registerSeeker(string memory name,string memory age,string memory gender,string memory emailId,\n    string memory phoneNum) public {\n      require(inverseJobSeekerMap[msg.sender] == 0,\"Job Seeker already exists\");\n      jobSeekerCount++;\n      inverseJobSeekerMap[msg.sender] = jobSeekerCount;\n      jobSeekerMap[jobSeekerCount] = JobSeeker(jobSeekerCount,name,age,gender,emailId,phoneNum);\n  }\n\n  //Login the JobSeeker\n  function loginSeeker() public view{\n    require(inverseJobSeekerMap[msg.sender] != 0,\"Seeker should be in the database\");\n  }\n\n  //Register the Company\n  function registerCompany(string memory companyName) public {\n    require(inverseCompanyMap[msg.sender] == 0,\"Company is already registered\");\n    companyCount++;\n    inverseCompanyMap[msg.sender] = companyCount;\n    companyMap[companyCount] = Company(companyCount,companyName);\n  }\n\n  //Login the Company\n  function loginCompany() public view{\n    require(inverseCompanyMap[msg.sender] != 0,\"Company is already registered\");\n  }\n\n  event postAJobEvent(\n    uint jobId,\n    string title,\n    string roleType,\n    string companyName,\n    string companyUrl,\n    string location,\n    string description\n  );\n  //Company posting a job\n  function postAJob(string memory title,string memory roleType,string memory companyName,\n  string memory companyUrl,string memory location,string memory description,uint[] memory skillsId) public {\n    jobCount++;\n    counter = 0;\n    for(uint i = 0;i < skillsId.length;i++)\n    {\n      uint id = skillsId[i];\n      string memory skill = idToSkill[id];\n      temp[counter] = skill;\n      counter++;\n    }\n    JobDetails memory j1 = JobDetails(jobCount,title,roleType,companyName,companyUrl,location,description);\n    jobDetailsMap[jobCount] = j1;\n    emit postAJobEvent(jobCount,title,roleType,companyName,companyUrl,location,description);\n    // read (temp_mapping) public mapping\n  }\n\n  function applyJobFromCandidate(uint jobId,uint seekerId) public {\n    totalJobsApplied++;\n    totalToJobId[totalJobsApplied] = jobId;\n    totalToSeekerId[totalJobsApplied] = seekerId; \n    totalToJobIdAccepted[totalJobsApplied] = 0;\n    totalToSeekerIdAccepted[totalJobsApplied] = 0; \n  }\n\n  function acceptJobFromCompany(uint jobId,uint seekerId) public {\n    for(uint i = 0;i < totalJobsApplied ;i++){\n      if(totalToJobId[i]==jobId && totalToSeekerId[i]==seekerId){\n        totalToJobIdAccepted[i] = 1;\n        totalToSeekerIdAccepted[i] = 1;\n      }\n    }\n  }\n}\n",
  "sourcePath": "/home/aman/Desktop/blockchain-jobportal/contracts/SimpleStorage.sol",
  "compiler": {
    "name": "solc",
    "version": "0.5.16+commit.9c3226ce.Emscripten.clang"
  },
  "schemaVersion": "3.4.5",
  "updatedAt": "2022-04-16T23:33:16.826Z",
  "networkType": "ethereum",
  "devdoc": {
    "methods": {}
  },
  "userdoc": {
    "methods": {}
  }
}